{
  "_format": "hh-sol-artifact-1",
  "contractName": "SPAMDAO",
  "sourceName": "contracts/SPAMDAO.sol",
  "abi": [
    {
      "inputs": [
        {
          "internalType": "string",
          "name": "_name",
          "type": "string"
        },
        {
          "internalType": "string",
          "name": "_symbol",
          "type": "string"
        },
        {
          "internalType": "string",
          "name": "_initBaseURI",
          "type": "string"
        },
        {
          "internalType": "string",
          "name": "_initNotRevealedUri",
          "type": "string"
        }
      ],
      "stateMutability": "nonpayable",
      "type": "constructor"
    },
    {
      "anonymous": false,
      "inputs": [
        {
          "indexed": true,
          "internalType": "address",
          "name": "owner",
          "type": "address"
        },
        {
          "indexed": true,
          "internalType": "address",
          "name": "approved",
          "type": "address"
        },
        {
          "indexed": true,
          "internalType": "uint256",
          "name": "tokenId",
          "type": "uint256"
        }
      ],
      "name": "Approval",
      "type": "event"
    },
    {
      "anonymous": false,
      "inputs": [
        {
          "indexed": true,
          "internalType": "address",
          "name": "owner",
          "type": "address"
        },
        {
          "indexed": true,
          "internalType": "address",
          "name": "operator",
          "type": "address"
        },
        {
          "indexed": false,
          "internalType": "bool",
          "name": "approved",
          "type": "bool"
        }
      ],
      "name": "ApprovalForAll",
      "type": "event"
    },
    {
      "anonymous": false,
      "inputs": [
        {
          "indexed": true,
          "internalType": "address",
          "name": "previousOwner",
          "type": "address"
        },
        {
          "indexed": true,
          "internalType": "address",
          "name": "newOwner",
          "type": "address"
        }
      ],
      "name": "OwnershipTransferred",
      "type": "event"
    },
    {
      "anonymous": false,
      "inputs": [
        {
          "indexed": true,
          "internalType": "address",
          "name": "from",
          "type": "address"
        },
        {
          "indexed": true,
          "internalType": "address",
          "name": "to",
          "type": "address"
        },
        {
          "indexed": true,
          "internalType": "uint256",
          "name": "tokenId",
          "type": "uint256"
        }
      ],
      "name": "Transfer",
      "type": "event"
    },
    {
      "inputs": [
        {
          "internalType": "address",
          "name": "to",
          "type": "address"
        },
        {
          "internalType": "uint256",
          "name": "tokenId",
          "type": "uint256"
        }
      ],
      "name": "approve",
      "outputs": [],
      "stateMutability": "nonpayable",
      "type": "function"
    },
    {
      "inputs": [
        {
          "internalType": "address",
          "name": "owner",
          "type": "address"
        }
      ],
      "name": "balanceOf",
      "outputs": [
        {
          "internalType": "uint256",
          "name": "",
          "type": "uint256"
        }
      ],
      "stateMutability": "view",
      "type": "function"
    },
    {
      "inputs": [],
      "name": "baseExtension",
      "outputs": [
        {
          "internalType": "string",
          "name": "",
          "type": "string"
        }
      ],
      "stateMutability": "view",
      "type": "function"
    },
    {
      "inputs": [],
      "name": "baseURI",
      "outputs": [
        {
          "internalType": "string",
          "name": "",
          "type": "string"
        }
      ],
      "stateMutability": "view",
      "type": "function"
    },
    {
      "inputs": [
        {
          "internalType": "uint256",
          "name": "tokenId",
          "type": "uint256"
        }
      ],
      "name": "getApproved",
      "outputs": [
        {
          "internalType": "address",
          "name": "",
          "type": "address"
        }
      ],
      "stateMutability": "view",
      "type": "function"
    },
    {
      "inputs": [],
      "name": "getpresaleCost",
      "outputs": [
        {
          "internalType": "uint256",
          "name": "",
          "type": "uint256"
        }
      ],
      "stateMutability": "view",
      "type": "function"
    },
    {
      "inputs": [],
      "name": "getpublicCost",
      "outputs": [
        {
          "internalType": "uint256",
          "name": "",
          "type": "uint256"
        }
      ],
      "stateMutability": "view",
      "type": "function"
    },
    {
      "inputs": [
        {
          "internalType": "address",
          "name": "owner",
          "type": "address"
        },
        {
          "internalType": "address",
          "name": "operator",
          "type": "address"
        }
      ],
      "name": "isApprovedForAll",
      "outputs": [
        {
          "internalType": "bool",
          "name": "",
          "type": "bool"
        }
      ],
      "stateMutability": "view",
      "type": "function"
    },
    {
      "inputs": [],
      "name": "is_paused",
      "outputs": [
        {
          "internalType": "bool",
          "name": "",
          "type": "bool"
        }
      ],
      "stateMutability": "view",
      "type": "function"
    },
    {
      "inputs": [],
      "name": "is_presaleActive",
      "outputs": [
        {
          "internalType": "bool",
          "name": "",
          "type": "bool"
        }
      ],
      "stateMutability": "view",
      "type": "function"
    },
    {
      "inputs": [],
      "name": "is_revealed",
      "outputs": [
        {
          "internalType": "bool",
          "name": "",
          "type": "bool"
        }
      ],
      "stateMutability": "view",
      "type": "function"
    },
    {
      "inputs": [],
      "name": "maxMintAmount",
      "outputs": [
        {
          "internalType": "uint256",
          "name": "",
          "type": "uint256"
        }
      ],
      "stateMutability": "view",
      "type": "function"
    },
    {
      "inputs": [],
      "name": "maxSupply",
      "outputs": [
        {
          "internalType": "uint256",
          "name": "",
          "type": "uint256"
        }
      ],
      "stateMutability": "view",
      "type": "function"
    },
    {
      "inputs": [],
      "name": "merkleRoot",
      "outputs": [
        {
          "internalType": "bytes32",
          "name": "",
          "type": "bytes32"
        }
      ],
      "stateMutability": "view",
      "type": "function"
    },
    {
      "inputs": [],
      "name": "name",
      "outputs": [
        {
          "internalType": "string",
          "name": "",
          "type": "string"
        }
      ],
      "stateMutability": "view",
      "type": "function"
    },
    {
      "inputs": [],
      "name": "nftPerAddressLimit",
      "outputs": [
        {
          "internalType": "uint256",
          "name": "",
          "type": "uint256"
        }
      ],
      "stateMutability": "view",
      "type": "function"
    },
    {
      "inputs": [],
      "name": "notRevealedUri",
      "outputs": [
        {
          "internalType": "string",
          "name": "",
          "type": "string"
        }
      ],
      "stateMutability": "view",
      "type": "function"
    },
    {
      "inputs": [],
      "name": "owner",
      "outputs": [
        {
          "internalType": "address",
          "name": "",
          "type": "address"
        }
      ],
      "stateMutability": "view",
      "type": "function"
    },
    {
      "inputs": [
        {
          "internalType": "address",
          "name": "_address",
          "type": "address"
        },
        {
          "internalType": "uint256",
          "name": "count",
          "type": "uint256"
        }
      ],
      "name": "ownerMint",
      "outputs": [],
      "stateMutability": "nonpayable",
      "type": "function"
    },
    {
      "inputs": [
        {
          "internalType": "uint256",
          "name": "tokenId",
          "type": "uint256"
        }
      ],
      "name": "ownerOf",
      "outputs": [
        {
          "internalType": "address",
          "name": "",
          "type": "address"
        }
      ],
      "stateMutability": "view",
      "type": "function"
    },
    {
      "inputs": [
        {
          "internalType": "bool",
          "name": "_state",
          "type": "bool"
        }
      ],
      "name": "pause",
      "outputs": [],
      "stateMutability": "nonpayable",
      "type": "function"
    },
    {
      "inputs": [],
      "name": "paused",
      "outputs": [
        {
          "internalType": "bool",
          "name": "",
          "type": "bool"
        }
      ],
      "stateMutability": "view",
      "type": "function"
    },
    {
      "inputs": [],
      "name": "presale",
      "outputs": [
        {
          "internalType": "bool",
          "name": "",
          "type": "bool"
        }
      ],
      "stateMutability": "view",
      "type": "function"
    },
    {
      "inputs": [],
      "name": "presaleCost",
      "outputs": [
        {
          "internalType": "uint256",
          "name": "",
          "type": "uint256"
        }
      ],
      "stateMutability": "view",
      "type": "function"
    },
    {
      "inputs": [
        {
          "internalType": "uint256",
          "name": "_mintAmount",
          "type": "uint256"
        },
        {
          "internalType": "bytes32[]",
          "name": "_merkleProof",
          "type": "bytes32[]"
        }
      ],
      "name": "presaleMint",
      "outputs": [],
      "stateMutability": "payable",
      "type": "function"
    },
    {
      "inputs": [],
      "name": "publicCost",
      "outputs": [
        {
          "internalType": "uint256",
          "name": "",
          "type": "uint256"
        }
      ],
      "stateMutability": "view",
      "type": "function"
    },
    {
      "inputs": [
        {
          "internalType": "uint256",
          "name": "_mintAmount",
          "type": "uint256"
        }
      ],
      "name": "publicMint",
      "outputs": [],
      "stateMutability": "payable",
      "type": "function"
    },
    {
      "inputs": [],
      "name": "renounceOwnership",
      "outputs": [],
      "stateMutability": "nonpayable",
      "type": "function"
    },
    {
      "inputs": [],
      "name": "reveal",
      "outputs": [],
      "stateMutability": "nonpayable",
      "type": "function"
    },
    {
      "inputs": [],
      "name": "revealed",
      "outputs": [
        {
          "internalType": "bool",
          "name": "",
          "type": "bool"
        }
      ],
      "stateMutability": "view",
      "type": "function"
    },
    {
      "inputs": [
        {
          "internalType": "address",
          "name": "from",
          "type": "address"
        },
        {
          "internalType": "address",
          "name": "to",
          "type": "address"
        },
        {
          "internalType": "uint256",
          "name": "tokenId",
          "type": "uint256"
        }
      ],
      "name": "safeTransferFrom",
      "outputs": [],
      "stateMutability": "nonpayable",
      "type": "function"
    },
    {
      "inputs": [
        {
          "internalType": "address",
          "name": "from",
          "type": "address"
        },
        {
          "internalType": "address",
          "name": "to",
          "type": "address"
        },
        {
          "internalType": "uint256",
          "name": "tokenId",
          "type": "uint256"
        },
        {
          "internalType": "bytes",
          "name": "data",
          "type": "bytes"
        }
      ],
      "name": "safeTransferFrom",
      "outputs": [],
      "stateMutability": "nonpayable",
      "type": "function"
    },
    {
      "inputs": [
        {
          "internalType": "address",
          "name": "operator",
          "type": "address"
        },
        {
          "internalType": "bool",
          "name": "approved",
          "type": "bool"
        }
      ],
      "name": "setApprovalForAll",
      "outputs": [],
      "stateMutability": "nonpayable",
      "type": "function"
    },
    {
      "inputs": [
        {
          "internalType": "string",
          "name": "_newBaseExtension",
          "type": "string"
        }
      ],
      "name": "setBaseExtenstion",
      "outputs": [],
      "stateMutability": "nonpayable",
      "type": "function"
    },
    {
      "inputs": [
        {
          "internalType": "string",
          "name": "_newBaseURI",
          "type": "string"
        }
      ],
      "name": "setBaseURI",
      "outputs": [],
      "stateMutability": "nonpayable",
      "type": "function"
    },
    {
      "inputs": [
        {
          "internalType": "bytes32",
          "name": "_merkleRoot",
          "type": "bytes32"
        }
      ],
      "name": "setMerkleRoot",
      "outputs": [],
      "stateMutability": "nonpayable",
      "type": "function"
    },
    {
      "inputs": [
        {
          "internalType": "uint256",
          "name": "_limit",
          "type": "uint256"
        }
      ],
      "name": "setNftPerAddressLimit",
      "outputs": [],
      "stateMutability": "nonpayable",
      "type": "function"
    },
    {
      "inputs": [
        {
          "internalType": "string",
          "name": "_notRevealedURI",
          "type": "string"
        }
      ],
      "name": "setNotRevealedURI",
      "outputs": [],
      "stateMutability": "nonpayable",
      "type": "function"
    },
    {
      "inputs": [
        {
          "internalType": "bool",
          "name": "_state",
          "type": "bool"
        }
      ],
      "name": "setPresale",
      "outputs": [],
      "stateMutability": "nonpayable",
      "type": "function"
    },
    {
      "inputs": [
        {
          "internalType": "uint256",
          "name": "_newmaxMintAmount",
          "type": "uint256"
        }
      ],
      "name": "setmaxMintAmount",
      "outputs": [],
      "stateMutability": "nonpayable",
      "type": "function"
    },
    {
      "inputs": [
        {
          "internalType": "bytes4",
          "name": "interfaceId",
          "type": "bytes4"
        }
      ],
      "name": "supportsInterface",
      "outputs": [
        {
          "internalType": "bool",
          "name": "",
          "type": "bool"
        }
      ],
      "stateMutability": "view",
      "type": "function"
    },
    {
      "inputs": [],
      "name": "symbol",
      "outputs": [
        {
          "internalType": "string",
          "name": "",
          "type": "string"
        }
      ],
      "stateMutability": "view",
      "type": "function"
    },
    {
      "inputs": [
        {
          "internalType": "uint256",
          "name": "index",
          "type": "uint256"
        }
      ],
      "name": "tokenByIndex",
      "outputs": [
        {
          "internalType": "uint256",
          "name": "",
          "type": "uint256"
        }
      ],
      "stateMutability": "view",
      "type": "function"
    },
    {
      "inputs": [
        {
          "internalType": "address",
          "name": "owner",
          "type": "address"
        },
        {
          "internalType": "uint256",
          "name": "index",
          "type": "uint256"
        }
      ],
      "name": "tokenOfOwnerByIndex",
      "outputs": [
        {
          "internalType": "uint256",
          "name": "",
          "type": "uint256"
        }
      ],
      "stateMutability": "view",
      "type": "function"
    },
    {
      "inputs": [
        {
          "internalType": "uint256",
          "name": "tokenId",
          "type": "uint256"
        }
      ],
      "name": "tokenURI",
      "outputs": [
        {
          "internalType": "string",
          "name": "",
          "type": "string"
        }
      ],
      "stateMutability": "view",
      "type": "function"
    },
    {
      "inputs": [],
      "name": "totalSupply",
      "outputs": [
        {
          "internalType": "uint256",
          "name": "",
          "type": "uint256"
        }
      ],
      "stateMutability": "view",
      "type": "function"
    },
    {
      "inputs": [
        {
          "internalType": "address",
          "name": "from",
          "type": "address"
        },
        {
          "internalType": "address",
          "name": "to",
          "type": "address"
        },
        {
          "internalType": "uint256",
          "name": "tokenId",
          "type": "uint256"
        }
      ],
      "name": "transferFrom",
      "outputs": [],
      "stateMutability": "nonpayable",
      "type": "function"
    },
    {
      "inputs": [
        {
          "internalType": "address",
          "name": "newOwner",
          "type": "address"
        }
      ],
      "name": "transferOwnership",
      "outputs": [],
      "stateMutability": "nonpayable",
      "type": "function"
    },
    {
      "inputs": [
        {
          "internalType": "address",
          "name": "_owner",
          "type": "address"
        }
      ],
      "name": "walletOfOwner",
      "outputs": [
        {
          "internalType": "uint256[]",
          "name": "",
          "type": "uint256[]"
        }
      ],
      "stateMutability": "view",
      "type": "function"
    },
    {
      "inputs": [],
      "name": "withdraw",
      "outputs": [],
      "stateMutability": "nonpayable",
      "type": "function"
    }
  ],
  "bytecode": "0x60806040526040518060400160405280600581526020017f2e6a736f6e000000000000000000000000000000000000000000000000000000815250600c9080519060200190620000519291906200035d565b5065048c27395000600e5565246139ca8000600f5561012c601055600160115560016012556000601460006101000a81548160ff0219169083151502179055506000601460016101000a81548160ff0219169083151502179055506001601460026101000a81548160ff021916908315150217905550348015620000d457600080fd5b506040516200573a3803806200573a8339818101604052810190620000fa91906200047f565b83838160009080519060200190620001149291906200035d565b5080600190805190602001906200012d9291906200035d565b50505062000150620001446200017c60201b60201c565b6200018460201b60201c565b62000161826200024a60201b60201c565b62000172816200027660201b60201c565b5050505062000742565b600033905090565b6000600a60009054906101000a900473ffffffffffffffffffffffffffffffffffffffff16905081600a60006101000a81548173ffffffffffffffffffffffffffffffffffffffff021916908373ffffffffffffffffffffffffffffffffffffffff1602179055508173ffffffffffffffffffffffffffffffffffffffff168173ffffffffffffffffffffffffffffffffffffffff167f8be0079c531659141344cd1fd0a4f28419497f9722a3daafe3b4186f6b6457e060405160405180910390a35050565b6200025a620002a260201b60201c565b80600b9080519060200190620002729291906200035d565b5050565b62000286620002a260201b60201c565b80600d90805190602001906200029e9291906200035d565b5050565b620002b26200017c60201b60201c565b73ffffffffffffffffffffffffffffffffffffffff16620002d86200033360201b60201c565b73ffffffffffffffffffffffffffffffffffffffff161462000331576040517f08c379a0000000000000000000000000000000000000000000000000000000008152600401620003289062000576565b60405180910390fd5b565b6000600a60009054906101000a900473ffffffffffffffffffffffffffffffffffffffff16905090565b8280546200036b906200063e565b90600052602060002090601f0160209004810192826200038f5760008555620003db565b82601f10620003aa57805160ff1916838001178555620003db565b82800160010185558215620003db579182015b82811115620003da578251825591602001919060010190620003bd565b5b509050620003ea9190620003ee565b5090565b5b8082111562000409576000816000905550600101620003ef565b5090565b6000620004246200041e84620005c1565b62000598565b9050828152602081018484840111156200043d57600080fd5b6200044a84828562000608565b509392505050565b600082601f8301126200046457600080fd5b8151620004768482602086016200040d565b91505092915050565b600080600080608085870312156200049657600080fd5b600085015167ffffffffffffffff811115620004b157600080fd5b620004bf8782880162000452565b945050602085015167ffffffffffffffff811115620004dd57600080fd5b620004eb8782880162000452565b935050604085015167ffffffffffffffff8111156200050957600080fd5b620005178782880162000452565b925050606085015167ffffffffffffffff8111156200053557600080fd5b620005438782880162000452565b91505092959194509250565b60006200055e602083620005f7565b91506200056b8262000719565b602082019050919050565b6000602082019050818103600083015262000591816200054f565b9050919050565b6000620005a4620005b7565b9050620005b2828262000674565b919050565b6000604051905090565b600067ffffffffffffffff821115620005df57620005de620006d9565b5b620005ea8262000708565b9050602081019050919050565b600082825260208201905092915050565b60005b83811015620006285780820151818401526020810190506200060b565b8381111562000638576000848401525b50505050565b600060028204905060018216806200065757607f821691505b602082108114156200066e576200066d620006aa565b5b50919050565b6200067f8262000708565b810181811067ffffffffffffffff82111715620006a157620006a0620006d9565b5b80604052505050565b7f4e487b7100000000000000000000000000000000000000000000000000000000600052602260045260246000fd5b7f4e487b7100000000000000000000000000000000000000000000000000000000600052604160045260246000fd5b6000601f19601f8301169050919050565b7f4f776e61626c653a2063616c6c6572206973206e6f7420746865206f776e6572600082015250565b614fe880620007526000396000f3fe6080604052600436106102c95760003560e01c806370a0823111610175578063b9626d9c116100dc578063d388586e11610095578063e985e9c51161006f578063e985e9c514610aa4578063f2c4ce1e14610ae1578063f2fde38b14610b0a578063fdea8e0b14610b33576102c9565b8063d388586e14610a32578063d5abeb0114610a5d578063e3e1e8ef14610a88576102c9565b8063b9626d9c14610922578063ba7d2c761461094d578063c54e73e314610978578063c6682862146109a1578063c87b56dd146109cc578063d0eb26b014610a09576102c9565b80638da5cb5b1161012e5780638da5cb5b1461083857806395d89b41146108635780639d4f8aa91461088e578063a22cb465146108b9578063a475b5dd146108e2578063b88d4fde146108f9576102c9565b806370a082311461073c578063715018a614610779578063753a04c8146107905780637cb64759146107bb5780637f00c7a6146107e45780638693da201461080d576102c9565b80632f745c5911610234578063484b973c116101ed57806355f804b3116101c757806355f804b3146106805780635c975abb146106a95780636352211e146106d45780636c0360eb14610711576102c9565b8063484b973c146105ef5780634f6ccce7146106185780635183022714610655576102c9565b80632f745c59146104e15780633169a6cd1461051e5780633ccfd60b1461054757806342842e0e1461055e578063438b63001461058757806344aa5d18146105c4576102c9565b806318160ddd1161028657806318160ddd146103f0578063239c70ae1461041b57806323b872dd146104465780632a23d07d1461046f5780632db115441461049a5780632eb4a7ab146104b6576102c9565b806301ffc9a7146102ce57806302329a291461030b57806306fdde0314610334578063081812fc1461035f578063081c8c441461039c578063095ea7b3146103c7575b600080fd5b3480156102da57600080fd5b506102f560048036038101906102f091906138cf565b610b5e565b6040516103029190614063565b60405180910390f35b34801561031757600080fd5b50610332600480360381019061032d919061387d565b610bd8565b005b34801561034057600080fd5b50610349610bfd565b6040516103569190614099565b60405180910390f35b34801561036b57600080fd5b5061038660048036038101906103819190613962565b610c8f565b6040516103939190613fda565b60405180910390f35b3480156103a857600080fd5b506103b1610cd5565b6040516103be9190614099565b60405180910390f35b3480156103d357600080fd5b506103ee60048036038101906103e99190613841565b610d63565b005b3480156103fc57600080fd5b50610405610e7b565b604051610412919061441b565b60405180910390f35b34801561042757600080fd5b50610430610e88565b60405161043d919061441b565b60405180910390f35b34801561045257600080fd5b5061046d6004803603810190610468919061373b565b610e8e565b005b34801561047b57600080fd5b50610484610eee565b604051610491919061441b565b60405180910390f35b6104b460048036038101906104af9190613962565b610ef4565b005b3480156104c257600080fd5b506104cb611182565b6040516104d8919061407e565b60405180910390f35b3480156104ed57600080fd5b5061050860048036038101906105039190613841565b611188565b604051610515919061441b565b60405180910390f35b34801561052a57600080fd5b5061054560048036038101906105409190613921565b61122d565b005b34801561055357600080fd5b5061055c61124f565b005b34801561056a57600080fd5b506105856004803603810190610580919061373b565b6112a6565b005b34801561059357600080fd5b506105ae60048036038101906105a991906136d6565b6112c6565b6040516105bb9190614041565b60405180910390f35b3480156105d057600080fd5b506105d96113c0565b6040516105e6919061441b565b60405180910390f35b3480156105fb57600080fd5b5061061660048036038101906106119190613841565b6113ca565b005b34801561062457600080fd5b5061063f600480360381019061063a9190613962565b611430565b60405161064c919061441b565b60405180910390f35b34801561066157600080fd5b5061066a6114c7565b6040516106779190614063565b60405180910390f35b34801561068c57600080fd5b506106a760048036038101906106a29190613921565b6114da565b005b3480156106b557600080fd5b506106be6114fc565b6040516106cb9190614063565b60405180910390f35b3480156106e057600080fd5b506106fb60048036038101906106f69190613962565b61150f565b6040516107089190613fda565b60405180910390f35b34801561071d57600080fd5b506107266115c1565b6040516107339190614099565b60405180910390f35b34801561074857600080fd5b50610763600480360381019061075e91906136d6565b61164f565b604051610770919061441b565b60405180910390f35b34801561078557600080fd5b5061078e611707565b005b34801561079c57600080fd5b506107a561171b565b6040516107b29190614063565b60405180910390f35b3480156107c757600080fd5b506107e260048036038101906107dd91906138a6565b611732565b005b3480156107f057600080fd5b5061080b60048036038101906108069190613962565b611744565b005b34801561081957600080fd5b50610822611756565b60405161082f919061441b565b60405180910390f35b34801561084457600080fd5b5061084d61175c565b60405161085a9190613fda565b60405180910390f35b34801561086f57600080fd5b50610878611786565b6040516108859190614099565b60405180910390f35b34801561089a57600080fd5b506108a3611818565b6040516108b09190614063565b60405180910390f35b3480156108c557600080fd5b506108e060048036038101906108db9190613805565b61182f565b005b3480156108ee57600080fd5b506108f7611845565b005b34801561090557600080fd5b50610920600480360381019061091b919061378a565b61186a565b005b34801561092e57600080fd5b506109376118cc565b6040516109449190614063565b60405180910390f35b34801561095957600080fd5b506109626118e3565b60405161096f919061441b565b60405180910390f35b34801561098457600080fd5b5061099f600480360381019061099a919061387d565b6118e9565b005b3480156109ad57600080fd5b506109b661190e565b6040516109c39190614099565b60405180910390f35b3480156109d857600080fd5b506109f360048036038101906109ee9190613962565b61199c565b604051610a009190614099565b60405180910390f35b348015610a1557600080fd5b50610a306004803603810190610a2b9190613962565b611af5565b005b348015610a3e57600080fd5b50610a47611b07565b604051610a54919061441b565b60405180910390f35b348015610a6957600080fd5b50610a72611b11565b604051610a7f919061441b565b60405180910390f35b610aa26004803603810190610a9d919061398b565b611b17565b005b348015610ab057600080fd5b50610acb6004803603810190610ac691906136ff565b611eca565b604051610ad89190614063565b60405180910390f35b348015610aed57600080fd5b50610b086004803603810190610b039190613921565b611f5e565b005b348015610b1657600080fd5b50610b316004803603810190610b2c91906136d6565b611f80565b005b348015610b3f57600080fd5b50610b48612004565b604051610b559190614063565b60405180910390f35b60007f780e9d63000000000000000000000000000000000000000000000000000000007bffffffffffffffffffffffffffffffffffffffffffffffffffffffff1916827bffffffffffffffffffffffffffffffffffffffffffffffffffffffff19161480610bd15750610bd082612017565b5b9050919050565b610be06120f9565b80601460006101000a81548160ff02191690831515021790555050565b606060008054610c0c90614723565b80601f0160208091040260200160405190810160405280929190818152602001828054610c3890614723565b8015610c855780601f10610c5a57610100808354040283529160200191610c85565b820191906000526020600020905b815481529060010190602001808311610c6857829003601f168201915b5050505050905090565b6000610c9a82612177565b6004600083815260200190815260200160002060009054906101000a900473ffffffffffffffffffffffffffffffffffffffff169050919050565b600d8054610ce290614723565b80601f0160208091040260200160405190810160405280929190818152602001828054610d0e90614723565b8015610d5b5780601f10610d3057610100808354040283529160200191610d5b565b820191906000526020600020905b815481529060010190602001808311610d3e57829003601f168201915b505050505081565b6000610d6e8261150f565b90508073ffffffffffffffffffffffffffffffffffffffff168373ffffffffffffffffffffffffffffffffffffffff161415610ddf576040517f08c379a0000000000000000000000000000000000000000000000000000000008152600401610dd69061433b565b60405180910390fd5b8073ffffffffffffffffffffffffffffffffffffffff16610dfe6121c2565b73ffffffffffffffffffffffffffffffffffffffff161480610e2d5750610e2c81610e276121c2565b611eca565b5b610e6c576040517f08c379a0000000000000000000000000000000000000000000000000000000008152600401610e639061429b565b60405180910390fd5b610e7683836121ca565b505050565b6000600880549050905090565b60115481565b610e9f610e996121c2565b82612283565b610ede576040517f08c379a0000000000000000000000000000000000000000000000000000000008152600401610ed5906143db565b60405180910390fd5b610ee9838383612318565b505050565b600f5481565b601460009054906101000a900460ff1615610f44576040517f08c379a0000000000000000000000000000000000000000000000000000000008152600401610f3b9061435b565b60405180910390fd5b3373ffffffffffffffffffffffffffffffffffffffff163273ffffffffffffffffffffffffffffffffffffffff1614610fb2576040517f08c379a0000000000000000000000000000000000000000000000000000000008152600401610fa9906142fb565b60405180910390fd5b6000610fbc610e7b565b9050600082600e54610fce91906145d5565b9050601460029054906101000a900460ff1615611020576040517f08c379a0000000000000000000000000000000000000000000000000000000008152600401611017906140bb565b60405180910390fd5b60008311611063576040517f08c379a000000000000000000000000000000000000000000000000000000000815260040161105a906143fb565b60405180910390fd5b6011548311156110a8576040517f08c379a000000000000000000000000000000000000000000000000000000000815260040161109f906141fb565b60405180910390fd5b60105483836110b7919061454e565b11156110f8576040517f08c379a00000000000000000000000000000000000000000000000000000000081526004016110ef906140db565b60405180910390fd5b828161110491906145d5565b341015611146576040517f08c379a000000000000000000000000000000000000000000000000000000000815260040161113d9061437b565b60405180910390fd5b6000600190505b83811161117c57611169338285611164919061454e565b61257f565b808061117490614786565b91505061114d565b50505050565b60135481565b60006111938361164f565b82106111d4576040517f08c379a00000000000000000000000000000000000000000000000000000000081526004016111cb906140fb565b60405180910390fd5b600660008473ffffffffffffffffffffffffffffffffffffffff1673ffffffffffffffffffffffffffffffffffffffff168152602001908152602001600020600083815260200190815260200160002054905092915050565b6112356120f9565b80600c908051906020019061124b92919061349b565b5050565b6112576120f9565b60004790503373ffffffffffffffffffffffffffffffffffffffff166108fc829081150290604051600060405180830381858888f193505050501580156112a2573d6000803e3d6000fd5b5050565b6112c18383836040518060200160405280600081525061186a565b505050565b606060006112d38361164f565b905060008167ffffffffffffffff811115611317577f4e487b7100000000000000000000000000000000000000000000000000000000600052604160045260246000fd5b6040519080825280602002602001820160405280156113455781602001602082028036833780820191505090505b50905060005b828110156113b55761135d8582611188565b828281518110611396577f4e487b7100000000000000000000000000000000000000000000000000000000600052603260045260246000fd5b60200260200101818152505080806113ad90614786565b91505061134b565b508092505050919050565b6000600e54905090565b6113d26120f9565b60006113dc610e7b565b90506000600190505b82811161142a576114013382846113fc919061454e565b61257f565b61141733858385611412919061454e565b6112a6565b808061142290614786565b9150506113e5565b50505050565b600061143a610e7b565b821061147b576040517f08c379a00000000000000000000000000000000000000000000000000000000081526004016114729061439b565b60405180910390fd5b600882815481106114b5577f4e487b7100000000000000000000000000000000000000000000000000000000600052603260045260246000fd5b90600052602060002001549050919050565b601460019054906101000a900460ff1681565b6114e26120f9565b80600b90805190602001906114f892919061349b565b5050565b601460009054906101000a900460ff1681565b6000806002600084815260200190815260200160002060009054906101000a900473ffffffffffffffffffffffffffffffffffffffff169050600073ffffffffffffffffffffffffffffffffffffffff168173ffffffffffffffffffffffffffffffffffffffff1614156115b8576040517f08c379a00000000000000000000000000000000000000000000000000000000081526004016115af9061431b565b60405180910390fd5b80915050919050565b600b80546115ce90614723565b80601f01602080910402602001604051908101604052809291908181526020018280546115fa90614723565b80156116475780601f1061161c57610100808354040283529160200191611647565b820191906000526020600020905b81548152906001019060200180831161162a57829003601f168201915b505050505081565b60008073ffffffffffffffffffffffffffffffffffffffff168273ffffffffffffffffffffffffffffffffffffffff1614156116c0576040517f08c379a00000000000000000000000000000000000000000000000000000000081526004016116b79061425b565b60405180910390fd5b600360008373ffffffffffffffffffffffffffffffffffffffff1673ffffffffffffffffffffffffffffffffffffffff168152602001908152602001600020549050919050565b61170f6120f9565b611719600061259d565b565b6000601460029054906101000a900460ff16905090565b61173a6120f9565b8060138190555050565b61174c6120f9565b8060118190555050565b600e5481565b6000600a60009054906101000a900473ffffffffffffffffffffffffffffffffffffffff16905090565b60606001805461179590614723565b80601f01602080910402602001604051908101604052809291908181526020018280546117c190614723565b801561180e5780601f106117e35761010080835404028352916020019161180e565b820191906000526020600020905b8154815290600101906020018083116117f157829003601f168201915b5050505050905090565b6000601460009054906101000a900460ff16905090565b61184161183a6121c2565b8383612663565b5050565b61184d6120f9565b6001601460016101000a81548160ff021916908315150217905550565b61187b6118756121c2565b83612283565b6118ba576040517f08c379a00000000000000000000000000000000000000000000000000000000081526004016118b1906143db565b60405180910390fd5b6118c6848484846127d0565b50505050565b6000601460019054906101000a900460ff16905090565b60125481565b6118f16120f9565b80601460026101000a81548160ff02191690831515021790555050565b600c805461191b90614723565b80601f016020809104026020016040519081016040528092919081815260200182805461194790614723565b80156119945780601f1061196957610100808354040283529160200191611994565b820191906000526020600020905b81548152906001019060200180831161197757829003601f168201915b505050505081565b60606119a78261282c565b6119e6576040517f08c379a00000000000000000000000000000000000000000000000000000000081526004016119dd9061421b565b60405180910390fd5b60001515601460019054906101000a900460ff1615151415611a9457600d8054611a0f90614723565b80601f0160208091040260200160405190810160405280929190818152602001828054611a3b90614723565b8015611a885780601f10611a5d57610100808354040283529160200191611a88565b820191906000526020600020905b815481529060010190602001808311611a6b57829003601f168201915b50505050509050611af0565b6000611a9e612898565b90506000815111611abe5760405180602001604052806000815250611aec565b80611ac88461292a565b600c604051602001611adc93929190613fa9565b6040516020818303038152906040525b9150505b919050565b611afd6120f9565b8060128190555050565b6000600f54905090565b60105481565b601460009054906101000a900460ff1615611b67576040517f08c379a0000000000000000000000000000000000000000000000000000000008152600401611b5e9061435b565b60405180910390fd5b601460029054906101000a900460ff16611bb6576040517f08c379a0000000000000000000000000000000000000000000000000000000008152600401611bad906143bb565b60405180910390fd5b600033604051602001611bc99190613f8e565b604051602081830303815290604052805190602001209050611c2f838380806020026020016040519081016040528093929190818152602001838360200280828437600081840152601f19601f8201169050808301925050505050505060135483612ad7565b611c6e576040517f08c379a0000000000000000000000000000000000000000000000000000000008152600401611c659061423b565b60405180910390fd5b6000611c78610e7b565b9050600085600f54611c8a91906145d5565b905060008611611ccf576040517f08c379a0000000000000000000000000000000000000000000000000000000008152600401611cc6906143fb565b60405180910390fd5b601154861115611d14576040517f08c379a0000000000000000000000000000000000000000000000000000000008152600401611d0b906141fb565b60405180910390fd5b6010548683611d23919061454e565b1115611d64576040517f08c379a0000000000000000000000000000000000000000000000000000000008152600401611d5b9061427b565b60405180910390fd5b60125486601560003373ffffffffffffffffffffffffffffffffffffffff1673ffffffffffffffffffffffffffffffffffffffff16815260200190815260200160002054611db2919061454e565b1115611df3576040517f08c379a0000000000000000000000000000000000000000000000000000000008152600401611dea9061419b565b60405180910390fd5b80341015611e36576040517f08c379a0000000000000000000000000000000000000000000000000000000008152600401611e2d9061437b565b60405180910390fd5b6000600190505b868111611ec157611e59338285611e54919061454e565b61257f565b601560003373ffffffffffffffffffffffffffffffffffffffff1673ffffffffffffffffffffffffffffffffffffffff1681526020019081526020016000206000815480929190611ea990614786565b91905055508080611eb990614786565b915050611e3d565b50505050505050565b6000600560008473ffffffffffffffffffffffffffffffffffffffff1673ffffffffffffffffffffffffffffffffffffffff16815260200190815260200160002060008373ffffffffffffffffffffffffffffffffffffffff1673ffffffffffffffffffffffffffffffffffffffff16815260200190815260200160002060009054906101000a900460ff16905092915050565b611f666120f9565b80600d9080519060200190611f7c92919061349b565b5050565b611f886120f9565b600073ffffffffffffffffffffffffffffffffffffffff168173ffffffffffffffffffffffffffffffffffffffff161415611ff8576040517f08c379a0000000000000000000000000000000000000000000000000000000008152600401611fef9061413b565b60405180910390fd5b6120018161259d565b50565b601460029054906101000a900460ff1681565b60007f80ac58cd000000000000000000000000000000000000000000000000000000007bffffffffffffffffffffffffffffffffffffffffffffffffffffffff1916827bffffffffffffffffffffffffffffffffffffffffffffffffffffffff191614806120e257507f5b5e139f000000000000000000000000000000000000000000000000000000007bffffffffffffffffffffffffffffffffffffffffffffffffffffffff1916827bffffffffffffffffffffffffffffffffffffffffffffffffffffffff1916145b806120f257506120f182612aee565b5b9050919050565b6121016121c2565b73ffffffffffffffffffffffffffffffffffffffff1661211f61175c565b73ffffffffffffffffffffffffffffffffffffffff1614612175576040517f08c379a000000000000000000000000000000000000000000000000000000000815260040161216c906142db565b60405180910390fd5b565b6121808161282c565b6121bf576040517f08c379a00000000000000000000000000000000000000000000000000000000081526004016121b69061431b565b60405180910390fd5b50565b600033905090565b816004600083815260200190815260200160002060006101000a81548173ffffffffffffffffffffffffffffffffffffffff021916908373ffffffffffffffffffffffffffffffffffffffff160217905550808273ffffffffffffffffffffffffffffffffffffffff1661223d8361150f565b73ffffffffffffffffffffffffffffffffffffffff167f8c5be1e5ebec7d5bd14f71427d1e84f3dd0314c0f7b2291e5b200ac8c7c3b92560405160405180910390a45050565b60008061228f8361150f565b90508073ffffffffffffffffffffffffffffffffffffffff168473ffffffffffffffffffffffffffffffffffffffff1614806122d157506122d08185611eca565b5b8061230f57508373ffffffffffffffffffffffffffffffffffffffff166122f784610c8f565b73ffffffffffffffffffffffffffffffffffffffff16145b91505092915050565b8273ffffffffffffffffffffffffffffffffffffffff166123388261150f565b73ffffffffffffffffffffffffffffffffffffffff161461238e576040517f08c379a00000000000000000000000000000000000000000000000000000000081526004016123859061415b565b60405180910390fd5b600073ffffffffffffffffffffffffffffffffffffffff168273ffffffffffffffffffffffffffffffffffffffff1614156123fe576040517f08c379a00000000000000000000000000000000000000000000000000000000081526004016123f5906141bb565b60405180910390fd5b612409838383612b58565b6124146000826121ca565b6001600360008573ffffffffffffffffffffffffffffffffffffffff1673ffffffffffffffffffffffffffffffffffffffff1681526020019081526020016000206000828254612464919061462f565b925050819055506001600360008473ffffffffffffffffffffffffffffffffffffffff1673ffffffffffffffffffffffffffffffffffffffff16815260200190815260200160002060008282546124bb919061454e565b92505081905550816002600083815260200190815260200160002060006101000a81548173ffffffffffffffffffffffffffffffffffffffff021916908373ffffffffffffffffffffffffffffffffffffffff160217905550808273ffffffffffffffffffffffffffffffffffffffff168473ffffffffffffffffffffffffffffffffffffffff167fddf252ad1be2c89b69c2b068fc378daa952ba7f163c4a11628f55a4df523b3ef60405160405180910390a461257a838383612c6c565b505050565b612599828260405180602001604052806000815250612c71565b5050565b6000600a60009054906101000a900473ffffffffffffffffffffffffffffffffffffffff16905081600a60006101000a81548173ffffffffffffffffffffffffffffffffffffffff021916908373ffffffffffffffffffffffffffffffffffffffff1602179055508173ffffffffffffffffffffffffffffffffffffffff168173ffffffffffffffffffffffffffffffffffffffff167f8be0079c531659141344cd1fd0a4f28419497f9722a3daafe3b4186f6b6457e060405160405180910390a35050565b8173ffffffffffffffffffffffffffffffffffffffff168373ffffffffffffffffffffffffffffffffffffffff1614156126d2576040517f08c379a00000000000000000000000000000000000000000000000000000000081526004016126c9906141db565b60405180910390fd5b80600560008573ffffffffffffffffffffffffffffffffffffffff1673ffffffffffffffffffffffffffffffffffffffff16815260200190815260200160002060008473ffffffffffffffffffffffffffffffffffffffff1673ffffffffffffffffffffffffffffffffffffffff16815260200190815260200160002060006101000a81548160ff0219169083151502179055508173ffffffffffffffffffffffffffffffffffffffff168373ffffffffffffffffffffffffffffffffffffffff167f17307eab39ab6107e8899845ad3d59bd9653f200f220920489ca2b5937696c31836040516127c39190614063565b60405180910390a3505050565b6127db848484612318565b6127e784848484612ccc565b612826576040517f08c379a000000000000000000000000000000000000000000000000000000000815260040161281d9061411b565b60405180910390fd5b50505050565b60008073ffffffffffffffffffffffffffffffffffffffff166002600084815260200190815260200160002060009054906101000a900473ffffffffffffffffffffffffffffffffffffffff1673ffffffffffffffffffffffffffffffffffffffff1614159050919050565b6060600b80546128a790614723565b80601f01602080910402602001604051908101604052809291908181526020018280546128d390614723565b80156129205780601f106128f557610100808354040283529160200191612920565b820191906000526020600020905b81548152906001019060200180831161290357829003601f168201915b5050505050905090565b60606000821415612972576040518060400160405280600181526020017f30000000000000000000000000000000000000000000000000000000000000008152509050612ad2565b600082905060005b600082146129a457808061298d90614786565b915050600a8261299d91906145a4565b915061297a565b60008167ffffffffffffffff8111156129e6577f4e487b7100000000000000000000000000000000000000000000000000000000600052604160045260246000fd5b6040519080825280601f01601f191660200182016040528015612a185781602001600182028036833780820191505090505b5090505b60008514612acb57600182612a31919061462f565b9150600a85612a4091906147f3565b6030612a4c919061454e565b60f81b818381518110612a88577f4e487b7100000000000000000000000000000000000000000000000000000000600052603260045260246000fd5b60200101907effffffffffffffffffffffffffffffffffffffffffffffffffffffffffffff1916908160001a905350600a85612ac491906145a4565b9450612a1c565b8093505050505b919050565b600082612ae48584612e63565b1490509392505050565b60007f01ffc9a7000000000000000000000000000000000000000000000000000000007bffffffffffffffffffffffffffffffffffffffffffffffffffffffff1916827bffffffffffffffffffffffffffffffffffffffffffffffffffffffff1916149050919050565b612b63838383612edf565b600073ffffffffffffffffffffffffffffffffffffffff168373ffffffffffffffffffffffffffffffffffffffff161415612ba657612ba181612ee4565b612be5565b8173ffffffffffffffffffffffffffffffffffffffff168373ffffffffffffffffffffffffffffffffffffffff1614612be457612be38382612f2d565b5b5b600073ffffffffffffffffffffffffffffffffffffffff168273ffffffffffffffffffffffffffffffffffffffff161415612c2857612c238161309a565b612c67565b8273ffffffffffffffffffffffffffffffffffffffff168273ffffffffffffffffffffffffffffffffffffffff1614612c6657612c6582826131dd565b5b5b505050565b505050565b612c7b838361325c565b612c886000848484612ccc565b612cc7576040517f08c379a0000000000000000000000000000000000000000000000000000000008152600401612cbe9061411b565b60405180910390fd5b505050565b6000612ced8473ffffffffffffffffffffffffffffffffffffffff16613436565b15612e56578373ffffffffffffffffffffffffffffffffffffffff1663150b7a02612d166121c2565b8786866040518563ffffffff1660e01b8152600401612d389493929190613ff5565b602060405180830381600087803b158015612d5257600080fd5b505af1925050508015612d8357506040513d601f19601f82011682018060405250810190612d8091906138f8565b60015b612e06573d8060008114612db3576040519150601f19603f3d011682016040523d82523d6000602084013e612db8565b606091505b50600081511415612dfe576040517f08c379a0000000000000000000000000000000000000000000000000000000008152600401612df59061411b565b60405180910390fd5b805181602001fd5b63150b7a0260e01b7bffffffffffffffffffffffffffffffffffffffffffffffffffffffff1916817bffffffffffffffffffffffffffffffffffffffffffffffffffffffff191614915050612e5b565b600190505b949350505050565b60008082905060005b8451811015612ed457612ebf82868381518110612eb2577f4e487b7100000000000000000000000000000000000000000000000000000000600052603260045260246000fd5b6020026020010151613459565b91508080612ecc90614786565b915050612e6c565b508091505092915050565b505050565b6008805490506009600083815260200190815260200160002081905550600881908060018154018082558091505060019003906000526020600020016000909190919091505550565b60006001612f3a8461164f565b612f44919061462f565b9050600060076000848152602001908152602001600020549050818114613029576000600660008673ffffffffffffffffffffffffffffffffffffffff1673ffffffffffffffffffffffffffffffffffffffff168152602001908152602001600020600084815260200190815260200160002054905080600660008773ffffffffffffffffffffffffffffffffffffffff1673ffffffffffffffffffffffffffffffffffffffff168152602001908152602001600020600084815260200190815260200160002081905550816007600083815260200190815260200160002081905550505b6007600084815260200190815260200160002060009055600660008573ffffffffffffffffffffffffffffffffffffffff1673ffffffffffffffffffffffffffffffffffffffff16815260200190815260200160002060008381526020019081526020016000206000905550505050565b600060016008805490506130ae919061462f565b9050600060096000848152602001908152602001600020549050600060088381548110613104577f4e487b7100000000000000000000000000000000000000000000000000000000600052603260045260246000fd5b90600052602060002001549050806008838154811061314c577f4e487b7100000000000000000000000000000000000000000000000000000000600052603260045260246000fd5b9060005260206000200181905550816009600083815260200190815260200160002081905550600960008581526020019081526020016000206000905560088054806131c1577f4e487b7100000000000000000000000000000000000000000000000000000000600052603160045260246000fd5b6001900381819060005260206000200160009055905550505050565b60006131e88361164f565b905081600660008573ffffffffffffffffffffffffffffffffffffffff1673ffffffffffffffffffffffffffffffffffffffff168152602001908152602001600020600083815260200190815260200160002081905550806007600084815260200190815260200160002081905550505050565b600073ffffffffffffffffffffffffffffffffffffffff168273ffffffffffffffffffffffffffffffffffffffff1614156132cc576040517f08c379a00000000000000000000000000000000000000000000000000000000081526004016132c3906142bb565b60405180910390fd5b6132d58161282c565b15613315576040517f08c379a000000000000000000000000000000000000000000000000000000000815260040161330c9061417b565b60405180910390fd5b61332160008383612b58565b6001600360008473ffffffffffffffffffffffffffffffffffffffff1673ffffffffffffffffffffffffffffffffffffffff1681526020019081526020016000206000828254613371919061454e565b92505081905550816002600083815260200190815260200160002060006101000a81548173ffffffffffffffffffffffffffffffffffffffff021916908373ffffffffffffffffffffffffffffffffffffffff160217905550808273ffffffffffffffffffffffffffffffffffffffff16600073ffffffffffffffffffffffffffffffffffffffff167fddf252ad1be2c89b69c2b068fc378daa952ba7f163c4a11628f55a4df523b3ef60405160405180910390a461343260008383612c6c565b5050565b6000808273ffffffffffffffffffffffffffffffffffffffff163b119050919050565b60008183106134715761346c8284613484565b61347c565b61347b8383613484565b5b905092915050565b600082600052816020526040600020905092915050565b8280546134a790614723565b90600052602060002090601f0160209004810192826134c95760008555613510565b82601f106134e257805160ff1916838001178555613510565b82800160010185558215613510579182015b8281111561350f5782518255916020019190600101906134f4565b5b50905061351d9190613521565b5090565b5b8082111561353a576000816000905550600101613522565b5090565b600061355161354c8461445b565b614436565b90508281526020810184848401111561356957600080fd5b6135748482856146e1565b509392505050565b600061358f61358a8461448c565b614436565b9050828152602081018484840111156135a757600080fd5b6135b28482856146e1565b509392505050565b6000813590506135c981614f3f565b92915050565b60008083601f8401126135e157600080fd5b8235905067ffffffffffffffff8111156135fa57600080fd5b60208301915083602082028301111561361257600080fd5b9250929050565b60008135905061362881614f56565b92915050565b60008135905061363d81614f6d565b92915050565b60008135905061365281614f84565b92915050565b60008151905061366781614f84565b92915050565b600082601f83011261367e57600080fd5b813561368e84826020860161353e565b91505092915050565b600082601f8301126136a857600080fd5b81356136b884826020860161357c565b91505092915050565b6000813590506136d081614f9b565b92915050565b6000602082840312156136e857600080fd5b60006136f6848285016135ba565b91505092915050565b6000806040838503121561371257600080fd5b6000613720858286016135ba565b9250506020613731858286016135ba565b9150509250929050565b60008060006060848603121561375057600080fd5b600061375e868287016135ba565b935050602061376f868287016135ba565b9250506040613780868287016136c1565b9150509250925092565b600080600080608085870312156137a057600080fd5b60006137ae878288016135ba565b94505060206137bf878288016135ba565b93505060406137d0878288016136c1565b925050606085013567ffffffffffffffff8111156137ed57600080fd5b6137f98782880161366d565b91505092959194509250565b6000806040838503121561381857600080fd5b6000613826858286016135ba565b925050602061383785828601613619565b9150509250929050565b6000806040838503121561385457600080fd5b6000613862858286016135ba565b9250506020613873858286016136c1565b9150509250929050565b60006020828403121561388f57600080fd5b600061389d84828501613619565b91505092915050565b6000602082840312156138b857600080fd5b60006138c68482850161362e565b91505092915050565b6000602082840312156138e157600080fd5b60006138ef84828501613643565b91505092915050565b60006020828403121561390a57600080fd5b600061391884828501613658565b91505092915050565b60006020828403121561393357600080fd5b600082013567ffffffffffffffff81111561394d57600080fd5b61395984828501613697565b91505092915050565b60006020828403121561397457600080fd5b6000613982848285016136c1565b91505092915050565b6000806000604084860312156139a057600080fd5b60006139ae868287016136c1565b935050602084013567ffffffffffffffff8111156139cb57600080fd5b6139d7868287016135cf565b92509250509250925092565b60006139ef8383613f70565b60208301905092915050565b613a0481614663565b82525050565b613a1b613a1682614663565b6147cf565b82525050565b6000613a2c826144e2565b613a368185614510565b9350613a41836144bd565b8060005b83811015613a72578151613a5988826139e3565b9750613a6483614503565b925050600181019050613a45565b5085935050505092915050565b613a8881614675565b82525050565b613a9781614681565b82525050565b6000613aa8826144ed565b613ab28185614521565b9350613ac28185602086016146f0565b613acb816148e0565b840191505092915050565b6000613ae1826144f8565b613aeb8185614532565b9350613afb8185602086016146f0565b613b04816148e0565b840191505092915050565b6000613b1a826144f8565b613b248185614543565b9350613b348185602086016146f0565b80840191505092915050565b60008154613b4d81614723565b613b578186614543565b94506001821660008114613b725760018114613b8357613bb6565b60ff19831686528186019350613bb6565b613b8c856144cd565b60005b83811015613bae57815481890152600182019150602081019050613b8f565b838801955050505b50505092915050565b6000613bcc603383614532565b9150613bd7826148fe565b604082019050919050565b6000613bef601983614532565b9150613bfa8261494d565b602082019050919050565b6000613c12602b83614532565b9150613c1d82614976565b604082019050919050565b6000613c35603283614532565b9150613c40826149c5565b604082019050919050565b6000613c58602683614532565b9150613c6382614a14565b604082019050919050565b6000613c7b602583614532565b9150613c8682614a63565b604082019050919050565b6000613c9e601c83614532565b9150613ca982614ab2565b602082019050919050565b6000613cc1601c83614532565b9150613ccc82614adb565b602082019050919050565b6000613ce4602483614532565b9150613cef82614b04565b604082019050919050565b6000613d07601983614532565b9150613d1282614b53565b602082019050919050565b6000613d2a602883614532565b9150613d3582614b7c565b604082019050919050565b6000613d4d603083614532565b9150613d5882614bcb565b604082019050919050565b6000613d70601283614532565b9150613d7b82614c1a565b602082019050919050565b6000613d93602983614532565b9150613d9e82614c43565b604082019050919050565b6000613db6601683614532565b9150613dc182614c92565b602082019050919050565b6000613dd9603e83614532565b9150613de482614cbb565b604082019050919050565b6000613dfc602083614532565b9150613e0782614d0a565b602082019050919050565b6000613e1f602083614532565b9150613e2a82614d33565b602082019050919050565b6000613e42601e83614532565b9150613e4d82614d5c565b602082019050919050565b6000613e65601883614532565b9150613e7082614d85565b602082019050919050565b6000613e88602183614532565b9150613e9382614dae565b604082019050919050565b6000613eab601983614532565b9150613eb682614dfd565b602082019050919050565b6000613ece601283614532565b9150613ed982614e26565b602082019050919050565b6000613ef1602c83614532565b9150613efc82614e4f565b604082019050919050565b6000613f14601683614532565b9150613f1f82614e9e565b602082019050919050565b6000613f37602e83614532565b9150613f4282614ec7565b604082019050919050565b6000613f5a601b83614532565b9150613f6582614f16565b602082019050919050565b613f79816146d7565b82525050565b613f88816146d7565b82525050565b6000613f9a8284613a0a565b60148201915081905092915050565b6000613fb58286613b0f565b9150613fc18285613b0f565b9150613fcd8284613b40565b9150819050949350505050565b6000602082019050613fef60008301846139fb565b92915050565b600060808201905061400a60008301876139fb565b61401760208301866139fb565b6140246040830185613f7f565b81810360608301526140368184613a9d565b905095945050505050565b6000602082019050818103600083015261405b8184613a21565b905092915050565b60006020820190506140786000830184613a7f565b92915050565b60006020820190506140936000830184613a8e565b92915050565b600060208201905081810360008301526140b38184613ad6565b905092915050565b600060208201905081810360008301526140d481613bbf565b9050919050565b600060208201905081810360008301526140f481613be2565b9050919050565b6000602082019050818103600083015261411481613c05565b9050919050565b6000602082019050818103600083015261413481613c28565b9050919050565b6000602082019050818103600083015261415481613c4b565b9050919050565b6000602082019050818103600083015261417481613c6e565b9050919050565b6000602082019050818103600083015261419481613c91565b9050919050565b600060208201905081810360008301526141b481613cb4565b9050919050565b600060208201905081810360008301526141d481613cd7565b9050919050565b600060208201905081810360008301526141f481613cfa565b9050919050565b6000602082019050818103600083015261421481613d1d565b9050919050565b6000602082019050818103600083015261423481613d40565b9050919050565b6000602082019050818103600083015261425481613d63565b9050919050565b6000602082019050818103600083015261427481613d86565b9050919050565b6000602082019050818103600083015261429481613da9565b9050919050565b600060208201905081810360008301526142b481613dcc565b9050919050565b600060208201905081810360008301526142d481613def565b9050919050565b600060208201905081810360008301526142f481613e12565b9050919050565b6000602082019050818103600083015261431481613e35565b9050919050565b6000602082019050818103600083015261433481613e58565b9050919050565b6000602082019050818103600083015261435481613e7b565b9050919050565b6000602082019050818103600083015261437481613e9e565b9050919050565b6000602082019050818103600083015261439481613ec1565b9050919050565b600060208201905081810360008301526143b481613ee4565b9050919050565b600060208201905081810360008301526143d481613f07565b9050919050565b600060208201905081810360008301526143f481613f2a565b9050919050565b6000602082019050818103600083015261441481613f4d565b9050919050565b60006020820190506144306000830184613f7f565b92915050565b6000614440614451565b905061444c8282614755565b919050565b6000604051905090565b600067ffffffffffffffff821115614476576144756148b1565b5b61447f826148e0565b9050602081019050919050565b600067ffffffffffffffff8211156144a7576144a66148b1565b5b6144b0826148e0565b9050602081019050919050565b6000819050602082019050919050565b60008190508160005260206000209050919050565b600081519050919050565b600081519050919050565b600081519050919050565b6000602082019050919050565b600082825260208201905092915050565b600082825260208201905092915050565b600082825260208201905092915050565b600081905092915050565b6000614559826146d7565b9150614564836146d7565b9250827fffffffffffffffffffffffffffffffffffffffffffffffffffffffffffffffff0382111561459957614598614824565b5b828201905092915050565b60006145af826146d7565b91506145ba836146d7565b9250826145ca576145c9614853565b5b828204905092915050565b60006145e0826146d7565b91506145eb836146d7565b9250817fffffffffffffffffffffffffffffffffffffffffffffffffffffffffffffffff048311821515161561462457614623614824565b5b828202905092915050565b600061463a826146d7565b9150614645836146d7565b92508282101561465857614657614824565b5b828203905092915050565b600061466e826146b7565b9050919050565b60008115159050919050565b6000819050919050565b60007fffffffff0000000000000000000000000000000000000000000000000000000082169050919050565b600073ffffffffffffffffffffffffffffffffffffffff82169050919050565b6000819050919050565b82818337600083830152505050565b60005b8381101561470e5780820151818401526020810190506146f3565b8381111561471d576000848401525b50505050565b6000600282049050600182168061473b57607f821691505b6020821081141561474f5761474e614882565b5b50919050565b61475e826148e0565b810181811067ffffffffffffffff8211171561477d5761477c6148b1565b5b80604052505050565b6000614791826146d7565b91507fffffffffffffffffffffffffffffffffffffffffffffffffffffffffffffffff8214156147c4576147c3614824565b5b600182019050919050565b60006147da826147e1565b9050919050565b60006147ec826148f1565b9050919050565b60006147fe826146d7565b9150614809836146d7565b92508261481957614818614853565b5b828206905092915050565b7f4e487b7100000000000000000000000000000000000000000000000000000000600052601160045260246000fd5b7f4e487b7100000000000000000000000000000000000000000000000000000000600052601260045260246000fd5b7f4e487b7100000000000000000000000000000000000000000000000000000000600052602260045260246000fd5b7f4e487b7100000000000000000000000000000000000000000000000000000000600052604160045260246000fd5b6000601f19601f8301169050919050565b60008160601b9050919050565b7f5075626c696373616c65206973206e6f7420617661696c61626c65207768696c60008201527f652050726573616c652069732061637469766500000000000000000000000000602082015250565b7f6d617820737570706c79206c696d697420657863656564656400000000000000600082015250565b7f455243373231456e756d657261626c653a206f776e657220696e646578206f7560008201527f74206f6620626f756e6473000000000000000000000000000000000000000000602082015250565b7f4552433732313a207472616e7366657220746f206e6f6e20455243373231526560008201527f63656976657220696d706c656d656e7465720000000000000000000000000000602082015250565b7f4f776e61626c653a206e6577206f776e657220697320746865207a65726f206160008201527f6464726573730000000000000000000000000000000000000000000000000000602082015250565b7f4552433732313a207472616e736665722066726f6d20696e636f72726563742060008201527f6f776e6572000000000000000000000000000000000000000000000000000000602082015250565b7f4552433732313a20746f6b656e20616c7265616479206d696e74656400000000600082015250565b7f6d6178204e465420706572206164647265737320657863656564656400000000600082015250565b7f4552433732313a207472616e7366657220746f20746865207a65726f2061646460008201527f7265737300000000000000000000000000000000000000000000000000000000602082015250565b7f4552433732313a20617070726f766520746f2063616c6c657200000000000000600082015250565b7f6d6178206d696e7420616d6f756e7420706572207472616e73616374696f6e2060008201527f6578636565646564000000000000000000000000000000000000000000000000602082015250565b7f4552433732314d657461646574613a2055524920717565727920666f72206e6f60008201527f6e65786973746d656e7420746f6b656e00000000000000000000000000000000602082015250565b7f496e76616c69204d65726c652050726f6f660000000000000000000000000000600082015250565b7f4552433732313a2061646472657373207a65726f206973206e6f74206120766160008201527f6c6964206f776e65720000000000000000000000000000000000000000000000602082015250565b7f6d6178204e4654206c696d697420657863656564656400000000000000000000600082015250565b7f4552433732313a20617070726f76652063616c6c6572206973206e6f7420746f60008201527f6b656e206f776e6572206e6f7220617070726f76656420666f7220616c6c0000602082015250565b7f4552433732313a206d696e7420746f20746865207a65726f2061646472657373600082015250565b7f4f776e61626c653a2063616c6c6572206973206e6f7420746865206f776e6572600082015250565b7f547279696e6720746f206d696e742066726f6d206120636f6e74726163740000600082015250565b7f4552433732313a20696e76616c696420746f6b656e2049440000000000000000600082015250565b7f4552433732313a20617070726f76616c20746f2063757272656e74206f776e6560008201527f7200000000000000000000000000000000000000000000000000000000000000602082015250565b7f7468652073616c65206973206e6f7420617661696c61626c6500000000000000600082015250565b7f696e73756666696369656e742066756e64730000000000000000000000000000600082015250565b7f455243373231456e756d657261626c653a20676c6f62616c20696e646578206f60008201527f7574206f6620626f756e64730000000000000000000000000000000000000000602082015250565b7f50726573616c65206973206e6f74206163746976652e00000000000000000000600082015250565b7f4552433732313a2063616c6c6572206973206e6f7420746f6b656e206f776e6560008201527f72206e6f7220617070726f766564000000000000000000000000000000000000602082015250565b7f6e65656420746f206d696e74206174206c656173742031204e46540000000000600082015250565b614f4881614663565b8114614f5357600080fd5b50565b614f5f81614675565b8114614f6a57600080fd5b50565b614f7681614681565b8114614f8157600080fd5b50565b614f8d8161468b565b8114614f9857600080fd5b50565b614fa4816146d7565b8114614faf57600080fd5b5056fea264697066735822122056ee27b04d405536d792e78474d007e0e4a0cc17ac79d4c85adc6703a0f12b8564736f6c63430008040033",
  "linkReferences": {},
  "deployedLinkReferences": {}
}